{
  "address": "0x0dca239715F64b42a5305e236F4380424036893a",
  "abi": [
    {
      "inputs": [
        {
          "internalType": "string",
          "name": "name",
          "type": "string"
        },
        {
          "internalType": "string",
          "name": "symbol",
          "type": "string"
        }
      ],
      "stateMutability": "nonpayable",
      "type": "constructor"
    },
    {
      "anonymous": false,
      "inputs": [
        {
          "indexed": true,
          "internalType": "address",
          "name": "owner",
          "type": "address"
        },
        {
          "indexed": true,
          "internalType": "address",
          "name": "approved",
          "type": "address"
        },
        {
          "indexed": true,
          "internalType": "uint256",
          "name": "tokenId",
          "type": "uint256"
        }
      ],
      "name": "Approval",
      "type": "event"
    },
    {
      "anonymous": false,
      "inputs": [
        {
          "indexed": true,
          "internalType": "address",
          "name": "owner",
          "type": "address"
        },
        {
          "indexed": true,
          "internalType": "address",
          "name": "operator",
          "type": "address"
        },
        {
          "indexed": false,
          "internalType": "bool",
          "name": "approved",
          "type": "bool"
        }
      ],
      "name": "ApprovalForAll",
      "type": "event"
    },
    {
      "anonymous": false,
      "inputs": [
        {
          "indexed": true,
          "internalType": "address",
          "name": "previousOwner",
          "type": "address"
        },
        {
          "indexed": true,
          "internalType": "address",
          "name": "newOwner",
          "type": "address"
        }
      ],
      "name": "OwnershipTransferred",
      "type": "event"
    },
    {
      "anonymous": false,
      "inputs": [
        {
          "indexed": true,
          "internalType": "address",
          "name": "from",
          "type": "address"
        },
        {
          "indexed": true,
          "internalType": "address",
          "name": "to",
          "type": "address"
        },
        {
          "indexed": true,
          "internalType": "uint256",
          "name": "tokenId",
          "type": "uint256"
        }
      ],
      "name": "Transfer",
      "type": "event"
    },
    {
      "inputs": [
        {
          "internalType": "address",
          "name": "to",
          "type": "address"
        },
        {
          "internalType": "uint256",
          "name": "tokenId",
          "type": "uint256"
        }
      ],
      "name": "approve",
      "outputs": [],
      "stateMutability": "nonpayable",
      "type": "function"
    },
    {
      "inputs": [
        {
          "internalType": "address",
          "name": "owner",
          "type": "address"
        }
      ],
      "name": "balanceOf",
      "outputs": [
        {
          "internalType": "uint256",
          "name": "",
          "type": "uint256"
        }
      ],
      "stateMutability": "view",
      "type": "function"
    },
    {
      "inputs": [
        {
          "internalType": "uint256",
          "name": "tokenId",
          "type": "uint256"
        }
      ],
      "name": "getApproved",
      "outputs": [
        {
          "internalType": "address",
          "name": "",
          "type": "address"
        }
      ],
      "stateMutability": "view",
      "type": "function"
    },
    {
      "inputs": [
        {
          "internalType": "address",
          "name": "owner",
          "type": "address"
        },
        {
          "internalType": "address",
          "name": "operator",
          "type": "address"
        }
      ],
      "name": "isApprovedForAll",
      "outputs": [
        {
          "internalType": "bool",
          "name": "",
          "type": "bool"
        }
      ],
      "stateMutability": "view",
      "type": "function"
    },
    {
      "inputs": [
        {
          "internalType": "uint256",
          "name": "tokenId",
          "type": "uint256"
        }
      ],
      "name": "mint",
      "outputs": [],
      "stateMutability": "nonpayable",
      "type": "function"
    },
    {
      "inputs": [],
      "name": "name",
      "outputs": [
        {
          "internalType": "string",
          "name": "",
          "type": "string"
        }
      ],
      "stateMutability": "view",
      "type": "function"
    },
    {
      "inputs": [],
      "name": "owner",
      "outputs": [
        {
          "internalType": "address",
          "name": "",
          "type": "address"
        }
      ],
      "stateMutability": "view",
      "type": "function"
    },
    {
      "inputs": [
        {
          "internalType": "uint256",
          "name": "tokenId",
          "type": "uint256"
        }
      ],
      "name": "ownerOf",
      "outputs": [
        {
          "internalType": "address",
          "name": "",
          "type": "address"
        }
      ],
      "stateMutability": "view",
      "type": "function"
    },
    {
      "inputs": [],
      "name": "renounceOwnership",
      "outputs": [],
      "stateMutability": "nonpayable",
      "type": "function"
    },
    {
      "inputs": [
        {
          "internalType": "address",
          "name": "from",
          "type": "address"
        },
        {
          "internalType": "address",
          "name": "to",
          "type": "address"
        },
        {
          "internalType": "uint256",
          "name": "tokenId",
          "type": "uint256"
        }
      ],
      "name": "safeTransferFrom",
      "outputs": [],
      "stateMutability": "nonpayable",
      "type": "function"
    },
    {
      "inputs": [
        {
          "internalType": "address",
          "name": "from",
          "type": "address"
        },
        {
          "internalType": "address",
          "name": "to",
          "type": "address"
        },
        {
          "internalType": "uint256",
          "name": "tokenId",
          "type": "uint256"
        },
        {
          "internalType": "bytes",
          "name": "_data",
          "type": "bytes"
        }
      ],
      "name": "safeTransferFrom",
      "outputs": [],
      "stateMutability": "nonpayable",
      "type": "function"
    },
    {
      "inputs": [
        {
          "internalType": "address",
          "name": "operator",
          "type": "address"
        },
        {
          "internalType": "bool",
          "name": "approved",
          "type": "bool"
        }
      ],
      "name": "setApprovalForAll",
      "outputs": [],
      "stateMutability": "nonpayable",
      "type": "function"
    },
    {
      "inputs": [
        {
          "internalType": "bytes4",
          "name": "interfaceId",
          "type": "bytes4"
        }
      ],
      "name": "supportsInterface",
      "outputs": [
        {
          "internalType": "bool",
          "name": "",
          "type": "bool"
        }
      ],
      "stateMutability": "view",
      "type": "function"
    },
    {
      "inputs": [],
      "name": "symbol",
      "outputs": [
        {
          "internalType": "string",
          "name": "",
          "type": "string"
        }
      ],
      "stateMutability": "view",
      "type": "function"
    },
    {
      "inputs": [
        {
          "internalType": "uint256",
          "name": "num",
          "type": "uint256"
        }
      ],
      "name": "toISOMonthAndDate",
      "outputs": [
        {
          "internalType": "string",
          "name": "",
          "type": "string"
        }
      ],
      "stateMutability": "pure",
      "type": "function"
    },
    {
      "inputs": [
        {
          "internalType": "uint256",
          "name": "tokenId",
          "type": "uint256"
        }
      ],
      "name": "tokenURI",
      "outputs": [
        {
          "internalType": "string",
          "name": "",
          "type": "string"
        }
      ],
      "stateMutability": "view",
      "type": "function"
    },
    {
      "inputs": [
        {
          "internalType": "address",
          "name": "from",
          "type": "address"
        },
        {
          "internalType": "address",
          "name": "to",
          "type": "address"
        },
        {
          "internalType": "uint256",
          "name": "tokenId",
          "type": "uint256"
        }
      ],
      "name": "transferFrom",
      "outputs": [],
      "stateMutability": "nonpayable",
      "type": "function"
    },
    {
      "inputs": [
        {
          "internalType": "address",
          "name": "newOwner",
          "type": "address"
        }
      ],
      "name": "transferOwnership",
      "outputs": [],
      "stateMutability": "nonpayable",
      "type": "function"
    }
  ],
  "transactionHash": "0x5cd7ea6f0aa7f81b4f2f090c2ac9d49705b71096aa40390875baf84c05b97a8f",
  "args": [
    "YYYYMMDD",
    "YMD"
  ],
  "numDeployments": 1,
  "solcInputHash": "edb3e90b00f00dfeec28f02f974a02cb",
  "bytecode": "0x60806040523480156200001157600080fd5b5060405162003c7838038062003c78833981810160405281019062000037919062000291565b818181600090805190602001906200005192919062000163565b5080600190805190602001906200006a92919062000163565b5050506200008d620000816200009560201b60201c565b6200009d60201b60201c565b50506200049a565b600033905090565b6000600660009054906101000a900473ffffffffffffffffffffffffffffffffffffffff16905081600660006101000a81548173ffffffffffffffffffffffffffffffffffffffff021916908373ffffffffffffffffffffffffffffffffffffffff1602179055508173ffffffffffffffffffffffffffffffffffffffff168173ffffffffffffffffffffffffffffffffffffffff167f8be0079c531659141344cd1fd0a4f28419497f9722a3daafe3b4186f6b6457e060405160405180910390a35050565b8280546200017190620003ab565b90600052602060002090601f016020900481019282620001955760008555620001e1565b82601f10620001b057805160ff1916838001178555620001e1565b82800160010185558215620001e1579182015b82811115620001e0578251825591602001919060010190620001c3565b5b509050620001f09190620001f4565b5090565b5b808211156200020f576000816000905550600101620001f5565b5090565b60006200022a62000224846200033f565b62000316565b9050828152602081018484840111156200024957620002486200047a565b5b6200025684828562000375565b509392505050565b600082601f83011262000276576200027562000475565b5b81516200028884826020860162000213565b91505092915050565b60008060408385031215620002ab57620002aa62000484565b5b600083015167ffffffffffffffff811115620002cc57620002cb6200047f565b5b620002da858286016200025e565b925050602083015167ffffffffffffffff811115620002fe57620002fd6200047f565b5b6200030c858286016200025e565b9150509250929050565b60006200032262000335565b9050620003308282620003e1565b919050565b6000604051905090565b600067ffffffffffffffff8211156200035d576200035c62000446565b5b620003688262000489565b9050602081019050919050565b60005b838110156200039557808201518184015260208101905062000378565b83811115620003a5576000848401525b50505050565b60006002820490506001821680620003c457607f821691505b60208210811415620003db57620003da62000417565b5b50919050565b620003ec8262000489565b810181811067ffffffffffffffff821117156200040e576200040d62000446565b5b80604052505050565b7f4e487b7100000000000000000000000000000000000000000000000000000000600052602260045260246000fd5b7f4e487b7100000000000000000000000000000000000000000000000000000000600052604160045260246000fd5b600080fd5b600080fd5b600080fd5b600080fd5b6000601f19601f8301169050919050565b6137ce80620004aa6000396000f3fe608060405234801561001057600080fd5b50600436106101165760003560e01c8063715018a6116100a2578063a22cb46511610071578063a22cb465146102df578063b88d4fde146102fb578063c87b56dd14610317578063e985e9c514610347578063f2fde38b1461037757610116565b8063715018a61461027d5780638da5cb5b1461028757806395d89b41146102a5578063a0712d68146102c357610116565b806323b872dd116100e957806323b872dd146101b55780632ed9edf6146101d157806342842e0e146102015780636352211e1461021d57806370a082311461024d57610116565b806301ffc9a71461011b57806306fdde031461014b578063081812fc14610169578063095ea7b314610199575b600080fd5b610135600480360381019061013091906121d4565b610393565b6040516101429190612722565b60405180910390f35b610153610475565b604051610160919061273d565b60405180910390f35b610183600480360381019061017e919061222e565b610507565b60405161019091906126bb565b60405180910390f35b6101b360048036038101906101ae9190612194565b61058c565b005b6101cf60048036038101906101ca919061207e565b6106a4565b005b6101eb60048036038101906101e6919061222e565b610704565b6040516101f8919061273d565b60405180910390f35b61021b6004803603810190610216919061207e565b61074e565b005b6102376004803603810190610232919061222e565b61076e565b60405161024491906126bb565b60405180910390f35b61026760048036038101906102629190612011565b610820565b604051610274919061293f565b60405180910390f35b6102856108d8565b005b61028f610960565b60405161029c91906126bb565b60405180910390f35b6102ad61098a565b6040516102ba919061273d565b60405180910390f35b6102dd60048036038101906102d8919061222e565b610a1c565b005b6102f960048036038101906102f49190612154565b610a29565b005b610315600480360381019061031091906120d1565b610a3f565b005b610331600480360381019061032c919061222e565b610aa1565b60405161033e919061273d565b60405180910390f35b610361600480360381019061035c919061203e565b610cdb565b60405161036e9190612722565b60405180910390f35b610391600480360381019061038c9190612011565b610d6f565b005b60007f80ac58cd000000000000000000000000000000000000000000000000000000007bffffffffffffffffffffffffffffffffffffffffffffffffffffffff1916827bffffffffffffffffffffffffffffffffffffffffffffffffffffffff1916148061045e57507f5b5e139f000000000000000000000000000000000000000000000000000000007bffffffffffffffffffffffffffffffffffffffffffffffffffffffff1916827bffffffffffffffffffffffffffffffffffffffffffffffffffffffff1916145b8061046e575061046d82610e67565b5b9050919050565b60606000805461048490612e71565b80601f01602080910402602001604051908101604052809291908181526020018280546104b090612e71565b80156104fd5780601f106104d2576101008083540402835291602001916104fd565b820191906000526020600020905b8154815290600101906020018083116104e057829003601f168201915b5050505050905090565b600061051282610ed1565b610551576040517f08c379a0000000000000000000000000000000000000000000000000000000008152600401610548906128bf565b60405180910390fd5b6004600083815260200190815260200160002060009054906101000a900473ffffffffffffffffffffffffffffffffffffffff169050919050565b60006105978261076e565b90508073ffffffffffffffffffffffffffffffffffffffff168373ffffffffffffffffffffffffffffffffffffffff161415610608576040517f08c379a00000000000000000000000000000000000000000000000000000000081526004016105ff906128ff565b60405180910390fd5b8073ffffffffffffffffffffffffffffffffffffffff16610627610f3d565b73ffffffffffffffffffffffffffffffffffffffff161480610656575061065581610650610f3d565b610cdb565b5b610695576040517f08c379a000000000000000000000000000000000000000000000000000000000815260040161068c9061283f565b60405180910390fd5b61069f8383610f45565b505050565b6106b56106af610f3d565b82610ffe565b6106f4576040517f08c379a00000000000000000000000000000000000000000000000000000000081526004016106eb9061291f565b60405180910390fd5b6106ff8383836110dc565b505050565b6060600a821061071e5761071782611343565b9050610749565b61072782611343565b6040516020016107379190612632565b60405160208183030381529060405290505b919050565b61076983838360405180602001604052806000815250610a3f565b505050565b6000806002600084815260200190815260200160002060009054906101000a900473ffffffffffffffffffffffffffffffffffffffff169050600073ffffffffffffffffffffffffffffffffffffffff168173ffffffffffffffffffffffffffffffffffffffff161415610817576040517f08c379a000000000000000000000000000000000000000000000000000000000815260040161080e9061287f565b60405180910390fd5b80915050919050565b60008073ffffffffffffffffffffffffffffffffffffffff168273ffffffffffffffffffffffffffffffffffffffff161415610891576040517f08c379a00000000000000000000000000000000000000000000000000000000081526004016108889061285f565b60405180910390fd5b600360008373ffffffffffffffffffffffffffffffffffffffff1673ffffffffffffffffffffffffffffffffffffffff168152602001908152602001600020549050919050565b6108e0610f3d565b73ffffffffffffffffffffffffffffffffffffffff166108fe610960565b73ffffffffffffffffffffffffffffffffffffffff1614610954576040517f08c379a000000000000000000000000000000000000000000000000000000000815260040161094b906128df565b60405180910390fd5b61095e60006114a4565b565b6000600660009054906101000a900473ffffffffffffffffffffffffffffffffffffffff16905090565b60606001805461099990612e71565b80601f01602080910402602001604051908101604052809291908181526020018280546109c590612e71565b8015610a125780601f106109e757610100808354040283529160200191610a12565b820191906000526020600020905b8154815290600101906020018083116109f557829003601f168201915b5050505050905090565b610a26338261156a565b50565b610a3b610a34610f3d565b8383611588565b5050565b610a50610a4a610f3d565b83610ffe565b610a8f576040517f08c379a0000000000000000000000000000000000000000000000000000000008152600401610a869061291f565b60405180910390fd5b610a9b848484846116f5565b50505050565b60606000610ab0600084611751565b9050610aba611f11565b6040518061016001604052806101308152602001613629610130913981600060058110610aea57610ae9612fdb565b5b6020020181905250610b03610afe83611782565b611343565b81600160058110610b1757610b16612fdb565b5b6020020181905250610b30610b2b836117a7565b610704565b81600260058110610b4457610b43612fdb565b5b6020020181905250610b5d610b58836117cd565b610704565b81600360058110610b7157610b70612fdb565b5b60200201819052506040518060400160405280600d81526020017f3c2f746578743e3c2f7376673e0000000000000000000000000000000000000081525081600460058110610bc357610bc2612fdb565b5b6020020181905250600081600060058110610be157610be0612fdb565b5b602002015182600160058110610bfa57610bf9612fdb565b5b602002015183600260058110610c1357610c12612fdb565b5b602002015184600360058110610c2c57610c2b612fdb565b5b602002015185600460058110610c4557610c44612fdb565b5b6020020151604051602001610c5e9594939291906125e7565b60405160208183030381529060405290506000610cab610c7d87611343565b610c86846117f4565b604051602001610c97929190612654565b6040516020818303038152906040526117f4565b905080604051602001610cbe9190612699565b604051602081830303815290604052915081945050505050919050565b6000600560008473ffffffffffffffffffffffffffffffffffffffff1673ffffffffffffffffffffffffffffffffffffffff16815260200190815260200160002060008373ffffffffffffffffffffffffffffffffffffffff1673ffffffffffffffffffffffffffffffffffffffff16815260200190815260200160002060009054906101000a900460ff16905092915050565b610d77610f3d565b73ffffffffffffffffffffffffffffffffffffffff16610d95610960565b73ffffffffffffffffffffffffffffffffffffffff1614610deb576040517f08c379a0000000000000000000000000000000000000000000000000000000008152600401610de2906128df565b60405180910390fd5b600073ffffffffffffffffffffffffffffffffffffffff168173ffffffffffffffffffffffffffffffffffffffff161415610e5b576040517f08c379a0000000000000000000000000000000000000000000000000000000008152600401610e529061277f565b60405180910390fd5b610e64816114a4565b50565b60007f01ffc9a7000000000000000000000000000000000000000000000000000000007bffffffffffffffffffffffffffffffffffffffffffffffffffffffff1916827bffffffffffffffffffffffffffffffffffffffffffffffffffffffff1916149050919050565b60008073ffffffffffffffffffffffffffffffffffffffff166002600084815260200190815260200160002060009054906101000a900473ffffffffffffffffffffffffffffffffffffffff1673ffffffffffffffffffffffffffffffffffffffff1614159050919050565b600033905090565b816004600083815260200190815260200160002060006101000a81548173ffffffffffffffffffffffffffffffffffffffff021916908373ffffffffffffffffffffffffffffffffffffffff160217905550808273ffffffffffffffffffffffffffffffffffffffff16610fb88361076e565b73ffffffffffffffffffffffffffffffffffffffff167f8c5be1e5ebec7d5bd14f71427d1e84f3dd0314c0f7b2291e5b200ac8c7c3b92560405160405180910390a45050565b600061100982610ed1565b611048576040517f08c379a000000000000000000000000000000000000000000000000000000000815260040161103f9061281f565b60405180910390fd5b60006110538361076e565b90508073ffffffffffffffffffffffffffffffffffffffff168473ffffffffffffffffffffffffffffffffffffffff1614806110c257508373ffffffffffffffffffffffffffffffffffffffff166110aa84610507565b73ffffffffffffffffffffffffffffffffffffffff16145b806110d357506110d28185610cdb565b5b91505092915050565b8273ffffffffffffffffffffffffffffffffffffffff166110fc8261076e565b73ffffffffffffffffffffffffffffffffffffffff1614611152576040517f08c379a00000000000000000000000000000000000000000000000000000000081526004016111499061279f565b60405180910390fd5b600073ffffffffffffffffffffffffffffffffffffffff168273ffffffffffffffffffffffffffffffffffffffff1614156111c2576040517f08c379a00000000000000000000000000000000000000000000000000000000081526004016111b9906127df565b60405180910390fd5b6111cd838383611979565b6111d8600082610f45565b6001600360008573ffffffffffffffffffffffffffffffffffffffff1673ffffffffffffffffffffffffffffffffffffffff16815260200190815260200160002060008282546112289190612d7d565b925050819055506001600360008473ffffffffffffffffffffffffffffffffffffffff1673ffffffffffffffffffffffffffffffffffffffff168152602001908152602001600020600082825461127f9190612a87565b92505081905550816002600083815260200190815260200160002060006101000a81548173ffffffffffffffffffffffffffffffffffffffff021916908373ffffffffffffffffffffffffffffffffffffffff160217905550808273ffffffffffffffffffffffffffffffffffffffff168473ffffffffffffffffffffffffffffffffffffffff167fddf252ad1be2c89b69c2b068fc378daa952ba7f163c4a11628f55a4df523b3ef60405160405180910390a461133e83838361197e565b505050565b6060600082141561138b576040518060400160405280600181526020017f3000000000000000000000000000000000000000000000000000000000000000815250905061149f565b600082905060005b600082146113bd5780806113a690612ed4565b915050600a826113b69190612b47565b9150611393565b60008167ffffffffffffffff8111156113d9576113d861300a565b5b6040519080825280601f01601f19166020018201604052801561140b5781602001600182028036833780820191505090505b5090505b60008514611498576001826114249190612d7d565b9150600a856114339190612f1d565b603061143f9190612a87565b60f81b81838151811061145557611454612fdb565b5b60200101907effffffffffffffffffffffffffffffffffffffffffffffffffffffffffffff1916908160001a905350600a856114919190612b47565b945061140f565b8093505050505b919050565b6000600660009054906101000a900473ffffffffffffffffffffffffffffffffffffffff16905081600660006101000a81548173ffffffffffffffffffffffffffffffffffffffff021916908373ffffffffffffffffffffffffffffffffffffffff1602179055508173ffffffffffffffffffffffffffffffffffffffff168173ffffffffffffffffffffffffffffffffffffffff167f8be0079c531659141344cd1fd0a4f28419497f9722a3daafe3b4186f6b6457e060405160405180910390a35050565b611584828260405180602001604052806000815250611983565b5050565b8173ffffffffffffffffffffffffffffffffffffffff168373ffffffffffffffffffffffffffffffffffffffff1614156115f7576040517f08c379a00000000000000000000000000000000000000000000000000000000081526004016115ee906127ff565b60405180910390fd5b80600560008573ffffffffffffffffffffffffffffffffffffffff1673ffffffffffffffffffffffffffffffffffffffff16815260200190815260200160002060008473ffffffffffffffffffffffffffffffffffffffff1673ffffffffffffffffffffffffffffffffffffffff16815260200190815260200160002060006101000a81548160ff0219169083151502179055508173ffffffffffffffffffffffffffffffffffffffff168373ffffffffffffffffffffffffffffffffffffffff167f17307eab39ab6107e8899845ad3d59bd9653f200f220920489ca2b5937696c31836040516116e89190612722565b60405180910390a3505050565b6117008484846110dc565b61170c848484846119de565b61174b576040517f08c379a00000000000000000000000000000000000000000000000000000000081526004016117429061275f565b60405180910390fd5b50505050565b600062015180826117629190612c8f565b8361176d9190612a87565b90508281101561177c57600080fd5b92915050565b600061179b62015180836117969190612b47565b611b75565b90505080915050919050565b60006117c062015180836117bb9190612b47565b611b75565b9091505080915050919050565b60006117e662015180836117e19190612b47565b611b75565b909150905080915050919050565b606060008251141561181757604051806020016040528060008152509050611974565b600060405180606001604052806040815260200161375960409139905060006003600285516118469190612a87565b6118509190612b47565b600461185c9190612c8f565b9050600060208261186d9190612a87565b67ffffffffffffffff8111156118865761188561300a565b5b6040519080825280601f01601f1916602001820160405280156118b85781602001600182028036833780820191505090505b509050818152600183018586518101602084015b81831015611933576003830192508251603f8160121c1685015160f81b8252600182019150603f81600c1c1685015160f81b8252600182019150603f8160061c1685015160f81b8252600182019150603f811685015160f81b8252600182019150506118cc565b60038951066001811461194d576002811461195d57611968565b613d3d60f01b6002830352611968565b603d60f81b60018303525b50505050508093505050505b919050565b505050565b505050565b61198d8383611d14565b61199a60008484846119de565b6119d9576040517f08c379a00000000000000000000000000000000000000000000000000000000081526004016119d09061275f565b60405180910390fd5b505050565b60006119ff8473ffffffffffffffffffffffffffffffffffffffff16611eee565b15611b68578373ffffffffffffffffffffffffffffffffffffffff1663150b7a02611a28610f3d565b8786866040518563ffffffff1660e01b8152600401611a4a94939291906126d6565b602060405180830381600087803b158015611a6457600080fd5b505af1925050508015611a9557506040513d601f19601f82011682018060405250810190611a929190612201565b60015b611b18573d8060008114611ac5576040519150601f19603f3d011682016040523d82523d6000602084013e611aca565b606091505b50600081511415611b10576040517f08c379a0000000000000000000000000000000000000000000000000000000008152600401611b079061275f565b60405180910390fd5b805181602001fd5b63150b7a0260e01b7bffffffffffffffffffffffffffffffffffffffffffffffffffffffff1916817bffffffffffffffffffffffffffffffffffffffffffffffffffffffff191614915050611b6d565b600190505b949350505050565b600080600080849050600062253d8c62010bd983611b9391906129f3565b611b9d91906129f3565b9050600062023ab1826004611bb29190612b78565b611bbc9190612add565b9050600460038262023ab1611bd19190612b78565b611bdb91906129f3565b611be59190612add565b82611bf09190612ce9565b9150600062164b09600184611c0591906129f3565b610fa0611c129190612b78565b611c1c9190612add565b9050601f6004826105b5611c309190612b78565b611c3a9190612add565b84611c459190612ce9565b611c4f91906129f3565b9250600061098f846050611c639190612b78565b611c6d9190612add565b9050600060508261098f611c819190612b78565b611c8b9190612add565b85611c969190612ce9565b9050600b82611ca59190612add565b945084600c611cb49190612b78565b600283611cc191906129f3565b611ccb9190612ce9565b91508483603186611cdc9190612ce9565b6064611ce89190612b78565b611cf291906129f3565b611cfc91906129f3565b92508298508197508096505050505050509193909250565b600073ffffffffffffffffffffffffffffffffffffffff168273ffffffffffffffffffffffffffffffffffffffff161415611d84576040517f08c379a0000000000000000000000000000000000000000000000000000000008152600401611d7b9061289f565b60405180910390fd5b611d8d81610ed1565b15611dcd576040517f08c379a0000000000000000000000000000000000000000000000000000000008152600401611dc4906127bf565b60405180910390fd5b611dd960008383611979565b6001600360008473ffffffffffffffffffffffffffffffffffffffff1673ffffffffffffffffffffffffffffffffffffffff1681526020019081526020016000206000828254611e299190612a87565b92505081905550816002600083815260200190815260200160002060006101000a81548173ffffffffffffffffffffffffffffffffffffffff021916908373ffffffffffffffffffffffffffffffffffffffff160217905550808273ffffffffffffffffffffffffffffffffffffffff16600073ffffffffffffffffffffffffffffffffffffffff167fddf252ad1be2c89b69c2b068fc378daa952ba7f163c4a11628f55a4df523b3ef60405160405180910390a4611eea6000838361197e565b5050565b6000808273ffffffffffffffffffffffffffffffffffffffff163b119050919050565b6040518060a001604052806005905b6060815260200190600190039081611f205790505090565b6000611f4b611f468461297f565b61295a565b905082815260208101848484011115611f6757611f6661303e565b5b611f72848285612e2f565b509392505050565b600081359050611f89816135cc565b92915050565b600081359050611f9e816135e3565b92915050565b600081359050611fb3816135fa565b92915050565b600081519050611fc8816135fa565b92915050565b600082601f830112611fe357611fe2613039565b5b8135611ff3848260208601611f38565b91505092915050565b60008135905061200b81613611565b92915050565b60006020828403121561202757612026613048565b5b600061203584828501611f7a565b91505092915050565b6000806040838503121561205557612054613048565b5b600061206385828601611f7a565b925050602061207485828601611f7a565b9150509250929050565b60008060006060848603121561209757612096613048565b5b60006120a586828701611f7a565b93505060206120b686828701611f7a565b92505060406120c786828701611ffc565b9150509250925092565b600080600080608085870312156120eb576120ea613048565b5b60006120f987828801611f7a565b945050602061210a87828801611f7a565b935050604061211b87828801611ffc565b925050606085013567ffffffffffffffff81111561213c5761213b613043565b5b61214887828801611fce565b91505092959194509250565b6000806040838503121561216b5761216a613048565b5b600061217985828601611f7a565b925050602061218a85828601611f8f565b9150509250929050565b600080604083850312156121ab576121aa613048565b5b60006121b985828601611f7a565b92505060206121ca85828601611ffc565b9150509250929050565b6000602082840312156121ea576121e9613048565b5b60006121f884828501611fa4565b91505092915050565b60006020828403121561221757612216613048565b5b600061222584828501611fb9565b91505092915050565b60006020828403121561224457612243613048565b5b600061225284828501611ffc565b91505092915050565b61226481612db1565b82525050565b61227381612dc3565b82525050565b6000612284826129b0565b61228e81856129c6565b935061229e818560208601612e3e565b6122a78161304d565b840191505092915050565b60006122bd826129bb565b6122c781856129d7565b93506122d7818560208601612e3e565b6122e08161304d565b840191505092915050565b60006122f6826129bb565b61230081856129e8565b9350612310818560208601612e3e565b80840191505092915050565b60006123296001836129e8565b91506123348261305e565b600182019050919050565b600061234c6032836129d7565b915061235782613087565b604082019050919050565b600061236f6026836129d7565b915061237a826130d6565b604082019050919050565b60006123926025836129d7565b915061239d82613125565b604082019050919050565b60006123b5601c836129d7565b91506123c082613174565b602082019050919050565b60006123d86014836129e8565b91506123e38261319d565b601482019050919050565b60006123fb6024836129d7565b9150612406826131c6565b604082019050919050565b600061241e6019836129d7565b915061242982613215565b602082019050919050565b60006124416085836129e8565b915061244c8261323e565b608582019050919050565b6000612464602c836129d7565b915061246f826132ff565b604082019050919050565b60006124876038836129d7565b91506124928261334e565b604082019050919050565b60006124aa602a836129d7565b91506124b58261339d565b604082019050919050565b60006124cd6029836129d7565b91506124d8826133ec565b604082019050919050565b60006124f06002836129e8565b91506124fb8261343b565b600282019050919050565b60006125136020836129d7565b915061251e82613464565b602082019050919050565b6000612536602c836129d7565b91506125418261348d565b604082019050919050565b60006125596020836129d7565b9150612564826134dc565b602082019050919050565b600061257c6021836129d7565b915061258782613505565b604082019050919050565b600061259f601d836129e8565b91506125aa82613554565b601d82019050919050565b60006125c26031836129d7565b91506125cd8261357d565b604082019050919050565b6125e181612e25565b82525050565b60006125f382886122eb565b91506125ff82876122eb565b915061260b82866122eb565b915061261782856122eb565b915061262382846122eb565b91508190509695505050505050565b600061263d8261231c565b915061264982846122eb565b915081905092915050565b600061265f826123cb565b915061266b82856122eb565b915061267682612434565b915061268282846122eb565b915061268d826124e3565b91508190509392505050565b60006126a482612592565b91506126b082846122eb565b915081905092915050565b60006020820190506126d0600083018461225b565b92915050565b60006080820190506126eb600083018761225b565b6126f8602083018661225b565b61270560408301856125d8565b81810360608301526127178184612279565b905095945050505050565b6000602082019050612737600083018461226a565b92915050565b6000602082019050818103600083015261275781846122b2565b905092915050565b600060208201905081810360008301526127788161233f565b9050919050565b6000602082019050818103600083015261279881612362565b9050919050565b600060208201905081810360008301526127b881612385565b9050919050565b600060208201905081810360008301526127d8816123a8565b9050919050565b600060208201905081810360008301526127f8816123ee565b9050919050565b6000602082019050818103600083015261281881612411565b9050919050565b6000602082019050818103600083015261283881612457565b9050919050565b600060208201905081810360008301526128588161247a565b9050919050565b600060208201905081810360008301526128788161249d565b9050919050565b60006020820190508181036000830152612898816124c0565b9050919050565b600060208201905081810360008301526128b881612506565b9050919050565b600060208201905081810360008301526128d881612529565b9050919050565b600060208201905081810360008301526128f88161254c565b9050919050565b600060208201905081810360008301526129188161256f565b9050919050565b60006020820190508181036000830152612938816125b5565b9050919050565b600060208201905061295460008301846125d8565b92915050565b6000612964612975565b90506129708282612ea3565b919050565b6000604051905090565b600067ffffffffffffffff82111561299a5761299961300a565b5b6129a38261304d565b9050602081019050919050565b600081519050919050565b600081519050919050565b600082825260208201905092915050565b600082825260208201905092915050565b600081905092915050565b60006129fe82612dfb565b9150612a0983612dfb565b9250817f7fffffffffffffffffffffffffffffffffffffffffffffffffffffffffffffff03831360008312151615612a4457612a43612f4e565b5b817f8000000000000000000000000000000000000000000000000000000000000000038312600083121615612a7c57612a7b612f4e565b5b828201905092915050565b6000612a9282612e25565b9150612a9d83612e25565b9250827fffffffffffffffffffffffffffffffffffffffffffffffffffffffffffffffff03821115612ad257612ad1612f4e565b5b828201905092915050565b6000612ae882612dfb565b9150612af383612dfb565b925082612b0357612b02612f7d565b5b600160000383147f800000000000000000000000000000000000000000000000000000000000000083141615612b3c57612b3b612f4e565b5b828205905092915050565b6000612b5282612e25565b9150612b5d83612e25565b925082612b6d57612b6c612f7d565b5b828204905092915050565b6000612b8382612dfb565b9150612b8e83612dfb565b9250827f7fffffffffffffffffffffffffffffffffffffffffffffffffffffffffffffff0482116000841360008413161615612bcd57612bcc612f4e565b5b817f80000000000000000000000000000000000000000000000000000000000000000583126000841260008413161615612c0a57612c09612f4e565b5b827f80000000000000000000000000000000000000000000000000000000000000000582126000841360008412161615612c4757612c46612f4e565b5b827f7fffffffffffffffffffffffffffffffffffffffffffffffffffffffffffffff0582126000841260008412161615612c8457612c83612f4e565b5b828202905092915050565b6000612c9a82612e25565b9150612ca583612e25565b9250817fffffffffffffffffffffffffffffffffffffffffffffffffffffffffffffffff0483118215151615612cde57612cdd612f4e565b5b828202905092915050565b6000612cf482612dfb565b9150612cff83612dfb565b9250827f800000000000000000000000000000000000000000000000000000000000000001821260008412151615612d3a57612d39612f4e565b5b827f7fffffffffffffffffffffffffffffffffffffffffffffffffffffffffffffff018213600084121615612d7257612d71612f4e565b5b828203905092915050565b6000612d8882612e25565b9150612d9383612e25565b925082821015612da657612da5612f4e565b5b828203905092915050565b6000612dbc82612e05565b9050919050565b60008115159050919050565b60007fffffffff0000000000000000000000000000000000000000000000000000000082169050919050565b6000819050919050565b600073ffffffffffffffffffffffffffffffffffffffff82169050919050565b6000819050919050565b82818337600083830152505050565b60005b83811015612e5c578082015181840152602081019050612e41565b83811115612e6b576000848401525b50505050565b60006002820490506001821680612e8957607f821691505b60208210811415612e9d57612e9c612fac565b5b50919050565b612eac8261304d565b810181811067ffffffffffffffff82111715612ecb57612eca61300a565b5b80604052505050565b6000612edf82612e25565b91507fffffffffffffffffffffffffffffffffffffffffffffffffffffffffffffffff821415612f1257612f11612f4e565b5b600182019050919050565b6000612f2882612e25565b9150612f3383612e25565b925082612f4357612f42612f7d565b5b828206905092915050565b7f4e487b7100000000000000000000000000000000000000000000000000000000600052601160045260246000fd5b7f4e487b7100000000000000000000000000000000000000000000000000000000600052601260045260246000fd5b7f4e487b7100000000000000000000000000000000000000000000000000000000600052602260045260246000fd5b7f4e487b7100000000000000000000000000000000000000000000000000000000600052603260045260246000fd5b7f4e487b7100000000000000000000000000000000000000000000000000000000600052604160045260246000fd5b600080fd5b600080fd5b600080fd5b600080fd5b6000601f19601f8301169050919050565b7f3000000000000000000000000000000000000000000000000000000000000000600082015250565b7f4552433732313a207472616e7366657220746f206e6f6e20455243373231526560008201527f63656976657220696d706c656d656e7465720000000000000000000000000000602082015250565b7f4f776e61626c653a206e6577206f776e657220697320746865207a65726f206160008201527f6464726573730000000000000000000000000000000000000000000000000000602082015250565b7f4552433732313a207472616e736665722066726f6d20696e636f72726563742060008201527f6f776e6572000000000000000000000000000000000000000000000000000000602082015250565b7f4552433732313a20746f6b656e20616c7265616479206d696e74656400000000600082015250565b7f7b226e616d65223a2022595959594d4d44442023000000000000000000000000600082015250565b7f4552433732313a207472616e7366657220746f20746865207a65726f2061646460008201527f7265737300000000000000000000000000000000000000000000000000000000602082015250565b7f4552433732313a20617070726f766520746f2063616c6c657200000000000000600082015250565b7f222c20226465736372697074696f6e223a2022595959594d4d4444206973207460008201527f696d657374616d7020746f6b656e2e204665656c206672656520746f2075736560208201527f20595959594d4d444420696e20616e792077617920796f752077616e742e222c60408201527f2022696d616765223a2022646174613a696d6167652f7376672b786d6c3b626160608201527f736536342c000000000000000000000000000000000000000000000000000000608082015250565b7f4552433732313a206f70657261746f7220717565727920666f72206e6f6e657860008201527f697374656e7420746f6b656e0000000000000000000000000000000000000000602082015250565b7f4552433732313a20617070726f76652063616c6c6572206973206e6f74206f7760008201527f6e6572206e6f7220617070726f76656420666f7220616c6c0000000000000000602082015250565b7f4552433732313a2062616c616e636520717565727920666f7220746865207a6560008201527f726f206164647265737300000000000000000000000000000000000000000000602082015250565b7f4552433732313a206f776e657220717565727920666f72206e6f6e657869737460008201527f656e7420746f6b656e0000000000000000000000000000000000000000000000602082015250565b7f227d000000000000000000000000000000000000000000000000000000000000600082015250565b7f4552433732313a206d696e7420746f20746865207a65726f2061646472657373600082015250565b7f4552433732313a20617070726f76656420717565727920666f72206e6f6e657860008201527f697374656e7420746f6b656e0000000000000000000000000000000000000000602082015250565b7f4f776e61626c653a2063616c6c6572206973206e6f7420746865206f776e6572600082015250565b7f4552433732313a20617070726f76616c20746f2063757272656e74206f776e6560008201527f7200000000000000000000000000000000000000000000000000000000000000602082015250565b7f646174613a6170706c69636174696f6e2f6a736f6e3b6261736536342c000000600082015250565b7f4552433732313a207472616e736665722063616c6c6572206973206e6f74206f60008201527f776e6572206e6f7220617070726f766564000000000000000000000000000000602082015250565b6135d581612db1565b81146135e057600080fd5b50565b6135ec81612dc3565b81146135f757600080fd5b50565b61360381612dcf565b811461360e57600080fd5b50565b61361a81612e25565b811461362557600080fd5b5056fe3c73766720786d6c6e733d22687474703a2f2f7777772e77332e6f72672f323030302f73766722207072657365727665417370656374526174696f3d22784d696e594d696e206d656574222076696577426f783d223020302033353020333530223e3c7374796c653e2e62617365207b2066696c6c3a2077686974653b20666f6e742d66616d696c793a2073657269663b20666f6e742d73697a653a20333670783b207d3c2f7374796c653e3c726563742077696474683d223130302522206865696768743d2231303025222066696c6c3d22626c61636b22202f3e3c7465787420783d223530252220793d223530252220746578742d616e63686f723d226d6964646c652220646f6d696e616e742d626173656c696e653d2263656e7472616c2220636c6173733d2262617365223e4142434445464748494a4b4c4d4e4f505152535455565758595a6162636465666768696a6b6c6d6e6f707172737475767778797a303132333435363738392b2fa264697066735822122020cf90f722aa0d15774e22a7cf24b500acfb25c0eb6a201cc3c8849920eeb5ac64736f6c63430008060033",
  "devdoc": {
    "kind": "dev",
    "methods": {
      "approve(address,uint256)": {
        "details": "See {IERC721-approve}."
      },
      "balanceOf(address)": {
        "details": "See {IERC721-balanceOf}."
      },
      "getApproved(uint256)": {
        "details": "See {IERC721-getApproved}."
      },
      "isApprovedForAll(address,address)": {
        "details": "See {IERC721-isApprovedForAll}."
      },
      "name()": {
        "details": "See {IERC721Metadata-name}."
      },
      "owner()": {
        "details": "Returns the address of the current owner."
      },
      "ownerOf(uint256)": {
        "details": "See {IERC721-ownerOf}."
      },
      "renounceOwnership()": {
        "details": "Leaves the contract without owner. It will not be possible to call `onlyOwner` functions anymore. Can only be called by the current owner. NOTE: Renouncing ownership will leave the contract without an owner, thereby removing any functionality that is only available to the owner."
      },
      "safeTransferFrom(address,address,uint256)": {
        "details": "See {IERC721-safeTransferFrom}."
      },
      "safeTransferFrom(address,address,uint256,bytes)": {
        "details": "See {IERC721-safeTransferFrom}."
      },
      "setApprovalForAll(address,bool)": {
        "details": "See {IERC721-setApprovalForAll}."
      },
      "supportsInterface(bytes4)": {
        "details": "See {IERC165-supportsInterface}."
      },
      "symbol()": {
        "details": "See {IERC721Metadata-symbol}."
      },
      "tokenURI(uint256)": {
        "details": "See {IERC721Metadata-tokenURI}."
      },
      "transferFrom(address,address,uint256)": {
        "details": "See {IERC721-transferFrom}."
      },
      "transferOwnership(address)": {
        "details": "Transfers ownership of the contract to a new account (`newOwner`). Can only be called by the current owner."
      }
    },
    "version": 1
  },
  "userdoc": {
    "kind": "user",
    "methods": {},
    "version": 1
  },
  "storageLayout": {
    "storage": [
      {
        "astId": 130,
        "contract": "contracts/YYYYMMDD.sol:YYYYMMDD",
        "label": "_name",
        "offset": 0,
        "slot": "0",
        "type": "t_string_storage"
      },
      {
        "astId": 132,
        "contract": "contracts/YYYYMMDD.sol:YYYYMMDD",
        "label": "_symbol",
        "offset": 0,
        "slot": "1",
        "type": "t_string_storage"
      },
      {
        "astId": 136,
        "contract": "contracts/YYYYMMDD.sol:YYYYMMDD",
        "label": "_owners",
        "offset": 0,
        "slot": "2",
        "type": "t_mapping(t_uint256,t_address)"
      },
      {
        "astId": 140,
        "contract": "contracts/YYYYMMDD.sol:YYYYMMDD",
        "label": "_balances",
        "offset": 0,
        "slot": "3",
        "type": "t_mapping(t_address,t_uint256)"
      },
      {
        "astId": 144,
        "contract": "contracts/YYYYMMDD.sol:YYYYMMDD",
        "label": "_tokenApprovals",
        "offset": 0,
        "slot": "4",
        "type": "t_mapping(t_uint256,t_address)"
      },
      {
        "astId": 150,
        "contract": "contracts/YYYYMMDD.sol:YYYYMMDD",
        "label": "_operatorApprovals",
        "offset": 0,
        "slot": "5",
        "type": "t_mapping(t_address,t_mapping(t_address,t_bool))"
      },
      {
        "astId": 7,
        "contract": "contracts/YYYYMMDD.sol:YYYYMMDD",
        "label": "_owner",
        "offset": 0,
        "slot": "6",
        "type": "t_address"
      }
    ],
    "types": {
      "t_address": {
        "encoding": "inplace",
        "label": "address",
        "numberOfBytes": "20"
      },
      "t_bool": {
        "encoding": "inplace",
        "label": "bool",
        "numberOfBytes": "1"
      },
      "t_mapping(t_address,t_bool)": {
        "encoding": "mapping",
        "key": "t_address",
        "label": "mapping(address => bool)",
        "numberOfBytes": "32",
        "value": "t_bool"
      },
      "t_mapping(t_address,t_mapping(t_address,t_bool))": {
        "encoding": "mapping",
        "key": "t_address",
        "label": "mapping(address => mapping(address => bool))",
        "numberOfBytes": "32",
        "value": "t_mapping(t_address,t_bool)"
      },
      "t_mapping(t_address,t_uint256)": {
        "encoding": "mapping",
        "key": "t_address",
        "label": "mapping(address => uint256)",
        "numberOfBytes": "32",
        "value": "t_uint256"
      },
      "t_mapping(t_uint256,t_address)": {
        "encoding": "mapping",
        "key": "t_uint256",
        "label": "mapping(uint256 => address)",
        "numberOfBytes": "32",
        "value": "t_address"
      },
      "t_string_storage": {
        "encoding": "bytes",
        "label": "string",
        "numberOfBytes": "32"
      },
      "t_uint256": {
        "encoding": "inplace",
        "label": "uint256",
        "numberOfBytes": "32"
      }
    }
  }
}